:100000000C9446000C9465000C9465000C946500FB
:100010000C9465000C9465000C9465000C946500CC
:100020000C9465000C9465000C9465000C946500BC
:100030000C9465000C9448010C9465000C946500C8
:100040000C9465000C9465000C9465000C9465009C
:100050000C9465000C9465000C9465000C9465008C
:100060000C9465000C9465000C9465000C9465007C
:100070000C9465000C9465000C9465000C9465006C
:100080000C9465000C9465000C94650011241FBE4F
:10009000CFEFD0E4DEBFCDBF11E0A0E0B1E0E8E9F2
:1000A000F0E100E00BBF02C007900D92A031B10754
:1000B000D9F72AE0A0E1B1E001C01D92AA3EB20743
:1000C000E1F70E94B9070C944A080C940000FFCF96
:1000D000FF93FFB7F894FF93EF93DF93CF93BF9312
:1000E000AF939F938F937F936F935F934F933F93C0
:1000F0002F931F930F93FF92EF92DF92CF92BF92B5
:10010000AF929F928F927F926F925F924F923F92A7
:100110002F921F920F928DB79EB790931D018093DF
:100120001C01E0911E01F0911F01F39580819181E6
:100130009EBF8DBF0F901F902F903F904F905F906C
:100140006F907F908F909F90AF90BF90CF90DF90F7
:10015000EF90FF900F911F912F913F914F915F91E1
:100160006F917F918F919F91AF91BF91CF91DF91CF
:10017000EF91FF91FFBFFF910895FF93FFB7F894B0
:10018000FF93EF93DF93CF93BF93AF939F938F939F
:100190007F936F935F934F933F932F931F930F938F
:1001A000FF92EF92DF92CF92BF92AF929F928F9287
:1001B0007F926F925F924F923F922F921F920F9277
:1001C000E0911E01F0911F018DB79EB7F3959183C9
:1001D000808380911C0190911D019EBF8DBF0F9067
:1001E0001F902F903F904F905F906F907F908F90D7
:1001F0009F90AF90BF90CF90DF90EF90FF900F91C6
:100200001F912F913F914F915F916F917F918F91AE
:100210009F91AF91BF91CF91DF91EF91FF91FFBF80
:10022000FF910895FC01DB01A95FBE4F1D921C9256
:1002300080819181892B29F4718360837383628328
:100240000895A281B381A95FBE4F6D937C937383A0
:1002500062830895DC012D913C91119721153105A0
:1002600049F0F901E95FFE4F408151814D935C9364
:1002700011821082822F932F0895CF93CFB7F894D5
:1002800083E080931B010E94BD00CFBFCF910895F2
:10029000FF93FFB7F894F068FF93EF93DF93CF934A
:1002A000BF93AF939F938F937F936F935F934F937E
:1002B0003F932F931F930F93FF92EF92DF92CF9272
:1002C000BF92AF929F928F927F926F925F924F9266
:1002D0003F922F921F920F92E0911E01F0911F0109
:1002E0008DB79EB7F3959183808380911C01909187
:1002F0001D019EBF8DBF81E080931B01E8E8F0E007
:1003000080819181815098429183808380911C01EA
:1003100090911D019EBF8DBF0F901F902F903F9019
:100320004F905F906F907F908F909F90AF90BF9015
:10033000CF90DF90EF90FF900F911F912F913F9101
:100340004F915F916F917F918F919F91AF91BF91ED
:10035000CF91DF91EF91FF91FFBFFF910895F89446
:1003600086E084B980910001863028F43091000144
:100370003F5F44E004C030910001355042E076E038
:1003800064E62AE054E175B9862F9FEFA7EDE0E01F
:100390009150A040E040E1F700C000008150A9F773
:1003A00015B888E2FFEF97EDA0E0F1509040A04033
:1003B000E1F700C000008150A9F7332359F190E024
:1003C00045B9822FEFEFF7EDA0E0E150F040A040FB
:1003D000E1F700C000008150A9F715B8822FEFEFB8
:1003E000F7EDA0E0E150F040A040E1F700C00000D0
:1003F0008150A9F79F5F9313E3CF0CC0EFEFF7EDA8
:1004000090E0E150F0409040E1F700C000008150E2
:10041000A9F7B9CF852FF2CF8091A70A9091A80AAA
:10042000892B09F4A7C080911901823069F4809169
:100430001A01882321F080911A01893028F081E087
:10044000809300010E94AF0180911901823069F40C
:10045000E0911A01F0E0EF54F54F8081811105C061
:1004600084E0809300010E94AF01809119018230E5
:1004700081F4E0911A01F0E0EE0FFF1FEB56F54F0B
:1004800080819181892B29F083E0809300010E9473
:10049000AF0180911901882331F087EA9AE00E9428
:1004A0002A01BC0102C068E879E09B0126523F4F57
:1004B000FB01E452FF4F1082FB01E650FF4F80E842
:1004C0008083E5E1F1E080819181DB01A450BF4FA1
:1004D0009C9380819181FB01E350FF4F8083FB015E
:1004E000E250FF4F8DE391E09083FB01E150FF4F1D
:1004F0008083FB01F39531832083FB01ED5FFE4F89
:1005000082E080838091170190911801FB01EC5FDC
:10051000FE4F91838083E9E1F1E08081DB01AA5FF6
:10052000BE4F8C9380911A01DB01AE5FBE4F8C935E
:100530008081823029F0833079F08130F1F413C06A
:10054000E0911A01F0E0EE0FFF1FEB56F54F7183BB
:10055000608321E030E013C08BEA9AE00E94120130
:1005600021E030E00CC08AEB9AE00E94120121E009
:1005700030E005C020E030E002C021E030E0822F12
:10058000932F08959F92AF92BF92CF92DF92EF92F6
:10059000FF920F931F93CF93DF93B82E0091C10A60
:1005A00001508091C30A081728F089E08093000168
:1005B0000E94AF01DD24D394611154C0D12C52C0EC
:1005C000C8010E942A01EC01FC01ED5FFE4FC082D0
:1005D000FC01EA5FFE4F8081813041F0833059F4A5
:1005E000BE018BEA9AE00E94120105C0BE018AEBAF
:1005F0009AE00E94120120911E0130911F0189E0B2
:100600002838380761F1D1102AC0F901EA5FFE4F9E
:100610008081833021F1FE01EA5FFE4F90819330AB
:10062000E9F08130E1F4E114F104C9F08091BE0AEF
:10063000811115C0E091BF0AF091C00AED5FFE4F35
:10064000E081F0E0EE0FFF1FEB56F54FDA2C8081D2
:100650009181C817D90719F0D92C01C0DA2CB11033
:1006600012C017C010E0000F111F000F111F085318
:10067000154F6894CC24C1F8AA24A394E0900101FA
:10068000F0900201912CF80120813181232B09F097
:1006900097CFDD20B9F060911E0170911F01F9E044
:1006A00068387F0779F0FB01ED5FFE4F82E08083C1
:1006B000FB01EA5FFE4F8081813021F48AEB9AE0F2
:1006C0000E941201DF91CF911F910F91FF90EF9047
:1006D000DF90CF90BF90AF909F900895CF93DF931E
:1006E00000D0CDB7DEB7E1E8F0E08081897F80837C
:1006F000808181608083A0900101B090020195010A
:10070000220F331F21153105D1F4C4C3E42FF0E0CB
:10071000ED5FFE4FE081E93018F00DC040E051E0A0
:10072000F0E0EF54F54F50834E5F842F90E0821736
:10073000930760F3AFC3109200010E94AF01E091F4
:100740000301E93058F3F7CF10821D921D920196F4
:10075000849F9001859F300D949F300D1124205E61
:100760003E4F35832483E35FFE4F8730910561F769
:1007700010928309109282090F2EF0E2CF2EF1E041
:10078000DF2EF02DD092A80AC092A70A8BE798E03E
:100790009093AA0A8093A90A0F2EF5E1EF2EF1E0BB
:1007A000FF2EF02D87E690E0D70111969C938E9353
:1007B00009E111E0F80110820E940C028CE098E03F
:1007C000D70111969C938E9383E0F80180830E9459
:1007D0000C02D0921F01C0921E0181E0809323027F
:1007E0008BEA9AE00E942A01AB2821F08091040153
:1007F00080931001EFE6F0E0808182608083809139
:100800008400909185008150984290938900809354
:10081000880082E086BB1092B00A1092AF0ABB2417
:10082000B3940F2EFAEB8F2EFAE09F2EF02D20902E
:1008300001013090020104EC1AE0412C512C689423
:10084000AA24A1F831019101220F331F3A83298391
:1008500080911E0190911F01FC01ED5FFE4F2081F0
:10086000213021F48858994009F045C0ABEABAE03C
:100870008D919C911197892B41F0CD010E942A0105
:1008800090931F0180931E012FC08091BE0A811199
:1008900018C021143104A9F0E091BF0AF091C00AF8
:1008A000ED5FFE4FE081F0E0EE0FFF1FEB56F54FDE
:1008B00080819181009729F090931F0180931E0100
:1008C00013C0F40180819181892B41F0C4010E9401
:1008D0002A0190931F0180931E0106C028E839E089
:1008E00030931F0120931E01E0911E01F0911F0122
:1008F000ED5FFE4FB0820E94680080911B01863040
:1009000009F428C288F4823009F423C138F488231A
:1009100009F4BDC2813009F0B5C21AC0843009F4AF
:100920008BC108F0B4C265C1893009F4E9C138F45B
:10093000873009F4A2C1883009F0A4C2B2C18B305B
:1009400009F4E8C108F4E1C18C3009F09BC2F2C19E
:100950008091AF0A9091B00A01969093B00A80936B
:10096000AF0A6114710409F44BC0809110018150E9
:100970008093100180911001811142C080911E016D
:1009800090911F01009779F0FC01EA5FFE4F808192
:10099000823049F48091BE0A811105C088E08093BD
:1009A00000010E94AF018091BF0A9091C00A029697
:1009B00069817A818617970728F49093C00A8093FB
:1009C000BF0A04C05092C00A4092BF0AE091BF0A19
:1009D000F091C00AED5FFE4F818180931001E081AC
:1009E000EE2349F0F0E0EE0FFF1FEB56F54F80814C
:1009F0009181892B19F4B092BE0A02C01092BE0AEE
:100A0000D8018D919C91009709F489C0FC01E55FA4
:100A1000FE4F80819181019791838083D12CC12CDD
:100A20005CC0E114F10451F0F701E75FFE4F8081F3
:100A30009181D8018D939C9311821082F701ED5F13
:100A4000FE4FA082F701EA5FFE4F8081813041F0C6
:100A5000833051F4B7018BEA9AE00E94120104C07E
:100A6000B701C4010E94120180911E0190911F01E3
:100A7000B9E088389B0761F1D1102AC0FC01EA5F18
:100A8000FE4F8081833021F1F701EA5FFE4F9081B4
:100A90009330E9F08130E1F461147104C9F0809180
:100AA000BE0A811115C0E091BF0AF091C00AED5F46
:100AB000FE4FE081F0E0EE0FFF1FEB56F54FDB2C11
:100AC000808191818E159F0519F0DC2C01C0DB2CF3
:100AD000F80180819181892B59F0D801ED90FC902B
:100AE000F701E55FFE4F80819181892B09F499CF51
:100AF000DD20A9F060911E0170911F01B9E06838F6
:100B00007B0769F0FB01ED5FFE4FA082FB01EA5F0E
:100B1000FE4F8081813019F4C4010E94120160915E
:100B20001E0170911F01FB01EA5FFE4F8081813041
:100B300009F0ADC1FB01ED5FFE4F8081813009F00E
:100B4000A6C1FB01ED5FFE4FA082C4010E9412010D
:100B50009EC10E940C029093140180931301809116
:100B6000130190911401892B09F491C1809119010D
:100B7000833079F480911E0190911F01FC01EA5F9E
:100B8000FE4F2081233009F482C1FC01ED5FFE4F4E
:100B9000A08260911E0170911F01FB01EA5FFE4F70
:100BA0008081813009F073C1809119018230B1F4E4
:100BB00080911A01E091BF0AF091C00AED5FFE4FEB
:100BC000908198130BC0FB01ED5FFE4FA082FB01EB
:100BD000EA5FFE4F8081813041F059C1FB01ED5F3A
:100BE000FE4F8081823009F052C1C4010E9412017F
:100BF0004EC160911E0170911F01E9E068387E07C7
:100C000009F445C1FB01ED5FFE4F1082FB01EA5F75
:100C1000FE4F8081823059F4FB01EE5FFE4FE08190
:100C2000F0E0EE0FFF1FEB56F54F1182108287EABE
:100C30009AE00E9412012BC1E0901E01F0901F016A
:100C4000F701EA5FFE4F8081823059F0833019F05E
:100C5000813071F409C0B7018BEA9AE00E94120159
:100C600007C0B092BE0A04C0B701C4010E941201BD
:100C7000F701ED5FFE4FA0820AC15092C20A409276
:100C8000C10A2091C30A283008F001C1822F90E0E8
:100C900001969093C20A8093C10A2F5F2093C30AE2
:100CA000F6C060911E0170911F01F9E068387F075E
:100CB00009F4EDC08091C10A81509091C30A89174F
:100CC00028F08AE0809300010E94AF01FB01EA5FF7
:100CD000FE4F9081923029F48CE0809300010E94B5
:100CE000AF01FB01ED5FFE4F93E0908390E0880F32
:100CF000991F880F991F8853954F0E941201C7C0F2
:100D000060E080E00E94C202C2C060E08B2D0E94C1
:100D1000C202BDC0E0911E01F0911F01EA5FFE4FCB
:100D20008081823011F4B092BE0A6B2D80E00E9467
:100D3000C202ADC0E0911E01F0911F01EA5FFE4FBB
:100D40008081823011F4B092BE0A6B2D8B2D0E94EF
:100D5000C2029DC0A0911E01B0911F0129E0A838D8
:100D6000B20709F494C0FD01EA5FFE4F8081823032
:100D700029F48CE0809300010E94AF01FD01ED5F3A
:100D8000FE4F34E03083F801408151814115510517
:100D900071F0FA01E55FFE4F608171818091110170
:100DA000909112016817790708F44AC07CC0F801D5
:100DB000B183A083FD01E75FFE4F11821082809115
:100DC000110190911201A55FBE4F8D939C935FC05E
:100DD000FC01E55FFE4F20813181260F371FE09136
:100DE0001101F09112012E173F0740F1FD01E75F5D
:100DF000FE4F91838083E0901101F0901201E61A7A
:100E0000F70AFD01E55FFE4FF182E082FC01E55F3C
:100E1000FE4F208131812E193F09318320834115F6
:100E2000510531F4F801B183A083009781F510C01A
:100E3000FA01E75FFE4FB183A08329C0B901AC017D
:100E4000FA01E75FFE4F80819181009709F601C0AA
:100E5000AC01FA01E75FFE4FB183A083FD01E75FBC
:100E6000FE4F11821082B093C70AA093C60A8091E8
:100E7000110190911201A55FBE4F861B970B8D93B8
:100E80009C9305C08DE0809300010E94AF011092F9
:100E90001B01DECCE3E2F2E0A5E9BAE080E090E0FD
:100EA0004DE051E051CCFD01E75FFE4F518340839F
:100EB0008091110190911201FD01E55FFE4F918338
:100EC0008083FA01E55FFE4F20813181B901681B03
:100ED000790B71836083CA01B201A4CFCF93CFB7DE
:100EE000F894909316018093150170931801609304
:100EF00017014093190120931A0182E080931B018E
:100F00000E94BD002091130130911401CFBF822FA8
:100F1000932FCF910895CF93DF931F92CDB7DEB774
:100F20008FB78983F89484E080931B010E94BD00F1
:100F300089818FBF0F90DF91CF9108952FB7F894DB
:100F4000E0911E01F0911F01EC5FFE4F80819181C5
:100F50002FBF0895CF93CFB7F89487E080931B01FC
:100F60000E94BD008091C10A9091C20ACFBFCF916B
:100F700008950E946E030E948B07FDCF0E949E077A
:100F8000C82F813041F0823041F0833041F084300D
:100F900041F0D0E807C0D1E005C0D2E003C0D4E002
:100FA00001C0D8E01D2F109585B1812385B9C130CE
:100FB00051F42FEF87ED90E0215080409040E1F711
:100FC00000C0000023C0C23051F42FEF87E892E048
:100FD000215080409040E1F700C0000017C0C330AE
:100FE00051F42FEF87ED90E0215080409040E1F7E1
:100FF00000C000000BC0C43049F42FEF87E892E036
:10100000215080409040E1F700C0000085B18D2B59
:1010100085B90E948B07C8CF8FEF84B985B90E942C
:10102000AA079093E90A8093E80A21E030E042E0C1
:1010300050E061E070E08EEB97E00E946E0722E0E6
:1010400030E042E050E062E070E08EEB97E00E941A
:101050006E0723E030E042E050E063E070E08EEBAA
:1010600097E00E946E0724E030E042E050E064E048
:1010700070E08EEB97E00E946E0722E330E041E0E3
:1010800050E060E070E08BEB97E00E946E0780E03C
:0810900090E00895F894FFCFF1
:101098000606000114021400280314041400280092
:00000001FF
